:020000040800F2
:10000000880600209D010008A1010008A301000846
:10001000A5010008A7010008A901000800000000D0
:10002000000000000000000000000000AB0100081C
:10003000AD01000800000000AF010008B101000898
:10004000B3010008B3010008B3010008B3010008C0
:10005000B3010008B3010008B3010008B3010008B0
:10006000B3010008B3010008B3010008B3010008A0
:10007000B3010008B3010008B3010008B301000890
:10008000B3010008B3010008B3010008B301000880
:10009000B3010008B3010008B3010008B301000870
:1000A000B3010008B3010008B3010008B301000860
:1000B000B30100084D0A0008B3010008B3010008AD
:1000C000B3010008B3010008B3010008B301000840
:1000D000B3010008B3010008B3010008B301000830
:1000E000B3010008B3010008B301000800F002F8F2
:1000F00000F03FF80AA090E8000C82448344AAF183
:100100000107DA4501D100F034F8AFF2090EBAE880
:100110000F0013F0010F18BFFB1A43F0010318473B
:10012000CC110000EC110000103A24BF78C878C14F
:10013000FAD8520724BF30C830C144BF04680C60ED
:10014000704700000023002400250026103A28BF35
:1001500078C1FBD8520728BF30C148BF0B60704739
:10016000642900F0F184002070471FB51FBD10B551
:1001700010BD00F0B1FD1146FFF7F7FF00F02AF8BF
:1001800000F0CFFD03B4FFF7F2FF03BC00F0FEF96F
:1001900030BF72B662B680F30888704708480047DF
:1001A000FEE7FEE7FEE7FEE7FEE7FEE7FEE7FEE727
:1001B000FEE7FEE703480449044A054B7047000088
:1001C000ED0000088800002088060020880200203A
:1001D00088020020092000F080F9482000F020F873
:1001E00000F046FA4FF4E131482000F0DEF900213A
:1001F00041F61F4000F0B2FA00F016FB41F61F4135
:10020000632000F06BFA04E00248016802A000F0ED
:100210005BFCF9E70400002025640D0A00000000E3
:100220004FF0E021096921F004014FF0E022116153
:10023000C21700EB5272C2F3C702234B1A70194661
:10024000097801EB4102C2EBC1114FF6FF7202EADD
:10025000C1011E4A1180704701461B4A12784A4369
:100260004FF0E0235A6100229A6101221A6100BF17
:100270004FF0E022106900F001021AB100F4803260
:10028000002AF5D000224FF0E0231A619A617047EE
:1002900001460E4A12884A434FF0E0235A61002279
:1002A0009A6101221A6100BF4FF0E022106900F04C
:1002B00001021AB100F48032002AF5D000224FF07A
:1002C000E0231A619A6170470C0000200E000020A4
:1002D000A34A0A400243A34B1A6070470146072312
:1002E00023EA010212029F4B1B1D18684FF6FF0301
:1002F00018409D4B184310439A4B1B1D18607047C4
:100300002DE9F0410746884614461D462846FFF76A
:10031000E5FFC5F1040007FA00F60F20284100EAC6
:100320000800064306F00F06E21704EBD2625211F2
:10033000920002F1E022D2F800212146E31704EBFB
:10034000D3635B11A4EB431C012303FA0CF31A43A0
:100350002046E31704EBD3635B119B0003F1E0231A
:10036000C3F800218148005D40EA06107F49085526
:10037000BDE8F08170B504460B46CE1701EB9676CA
:10038000C6F38700CE1701EB9676B610A1EB860672
:10039000B606350E764B9B6943F00103744EB3618C
:1003A0004FEAB63353F820300F26AE40B343714EB8
:1003B00046F82030334653F8203004FA05F61E4341
:1003C0006C4B43F820606C4B1B6801268E40334316
:1003D000694E336002F0010343B1674B0C331B6875
:1003E00001268E403343644E0C36336002F0020324
:1003F00043B1614B08331E6801238B401E435E4BA3
:1004000008331E6070BD00B5002059490861C860FE
:100410001420486100208861C8610846006840F0E7
:100420000100086008464068544908405049486047
:1004300008460068524908404D490860084600686F
:1004400020F4802008600846406820F4FE004860E0
:100450000020886000214FF00060FFF739FF00BDE9
:1004600010B540480830006840F004003D490831AC
:1004700008603F48C06940F080503D49C86141482C
:10048000406840F480703F4948600846006840F08A
:10049000040008600846006840F002000860FFF7AA
:1004A00077FE10BD3048001D2E49091D08607047B9
:1004B000014649062E4A926942F001022C4B9A618C
:1004C0002C4A083A526822F0E0622A4B083B5A60F4
:1004D0001A4652680A435A60704730B504460025F0
:1004E000FFF791FF2248006840F4803020490860FF
:1004F00000BF1F480068400C0028FAD04FF480600D
:100500001B494860A01EC4B20846406840EA8440C7
:1005100048600846406840F4803048601A480068E7
:1005200040F03200184908601148006840F08070BF
:100530000F49086000BF0E480068400E0028FAD03E
:100540000B48406840F002000949486005E008484F
:100550004068C0F3870505F00305022DF7D130BDD3
:1005600080FFFF1F08ED00E00000FA0500E400E056
:100570000010024008000140000401400000FFF8A4
:10058000FFFFF6FE0070004000200240014600BF61
:10059000704700BF324A128802F04002002AF9D0A8
:1005A000C2B22F4B1B1D1A8070472DE9F05F054624
:1005B0000E46300100F03AFD81462A4905FB01F064
:1005C00000F034FD8246494600F01AFC07463846E2
:1005D00000F0F4FC84B2204600F028FD8346394642
:1005E00000F004FE82464FF0834100F033FD814667
:1005F00000F0E4FC80464FF6FF7000EA041404EBC0
:10060000080084B21848806940F0040016498861E7
:100610000846806940F4804088611448006820F4EE
:100620007F60124908600846006840F40B6008606B
:100630000D48C06840F480400B49C8600846C06857
:1006400020F48040C860064808300480001D0088FF
:1006500042F20C01084302490C310880BDE8F09FCA
:100660000038014040420F000010024004080140E1
:100670001548806940F004001349886113480068F8
:1006800020F47020114908600846006840F44030AA
:1006900008600E480830006840F480700B4908314B
:1006A000086070470A490968491C094A116081427B
:1006B00008D108490968C943074AC2F8B0110021A6
:1006C000034A116070470000001002400408014016
:1006D00014000020B00121420000214270B50546FF
:1006E0000C461348C06940F002001149C861114826
:1006F0000580001F04800F482038008840F001006A
:100700000C49203908800846008840F040000880E5
:1007100008482C38008840F0010006492C39088030
:1007200002231D2203210120FFF7EAFD70BD000016
:10073000001002402C0400403648806940F0080058
:10074000344988613448006880B2334908600846FB
:1007500000683249084330490860704700B50246D6
:100760000B46FFF7E9FF2B48806940F400602949F8
:1007700088610846806940F0040088612848006864
:100780004FF20F01884326490860084600684BF283
:100790000B0108432249086022480280001F0380A1
:1007A00020481038008840F4C0401E4910390880A5
:1007B000081F008840F06000091F0880081D00889D
:1007C00040F40060091D0880081F008840F0080000
:1007D000091F088013480C38008840F480501149E4
:1007E0000C3908800846008840F0010008800D4858
:1007F0001830008840F400400A49183108804FF44E
:10080000004008492C3908800846008840F0010063
:10081000088000BD00100240040C014000002222AC
:10082000040801402C2C01404F48C06940F00100F1
:100830004D49C8610846806940F0040088614B4812
:10084000006820F0FF00494908600846006840F051
:10085000440008600020C90408854FF6FE708885B2
:100860000846008B40F0010008830846008B40F4E6
:10087000807008830846008C08840846008C088431
:100880000846008940F0030008810846008840F0CF
:100890000100088070473448C06940F004003249C4
:1008A000C8610846806940F00800886130480068E7
:1008B00020F07F402E4908600846006840F08840DC
:1008C000086000202B4908804FF6FE70091D088043
:1008D00028481038008840F0010026491039088067
:1008E0000846008840F48070088022480838008854
:1008F0002049083908800846008808801D482038AB
:10090000008840F003001B49203908801948283826
:10091000008840F0010017492839088070470146D7
:10092000022904D003290BD0042919D10FE04FF07C
:100930008042928C10B200224FF080439A8411E0E2
:100940000D4A128810B200220B4B1A800AE0094AA5
:10095000121F128810B20022064B1B1F1A8001E0E2
:10096000002000BF00BF7047001002400008014097
:10097000000C0140280800402404004001460029E2
:1009800001DA484200E00846704700B50246002AF6
:1009900007DD01203F49086000203F49C1F8B80148
:1009A00006E000203B49086001203B49C1F8B8013E
:1009B0001046FFF7E3FF3949088000BD41F6BC301F
:1009C000374909684242914202DA4142344A116091
:1009D00033490968814201DD3149086070472DE9DA
:1009E000FC5F04460D462F4E2F4F601B2F490860B9
:1009F0000846006800F002FB3946009000F02AFB30
:100A000082462A4909682A4A1268881A00F0F6FACA
:100A10003146009000F01EFB8346514600F08EF9EF
:100A200081462448006800F0E9FA4946019000F048
:100A300085F9804600F0A6FA1E4908601B48006848
:100A40001B4908601B480068BDE8FC9F10B51A48A8
:100A5000008800F00100D8B11748008820F001009C
:100A6000154908800220FFF75AFF144908606420E6
:100A7000FFF718FE1248016810480068FFF7AFFF43
:100A800007490860FFF79AFF05480068FFF77DFFF8
:100A9000002010BDBC81214200802142342C014045
:100AA000080000200000A0410000F0411C000020D0
:100AB000240000202000002010040040040000203A
:100AC00018000020704700000FB4044910B503AAB5
:100AD000029800F0D3F810BC5DF814FB1000002061
:100AE0002DE9F0410E460446002020622046E168D0
:100AF000884730B3252805D0D4E901219047206AE2
:100B0000401CF2E7E168204600278847050018D01E
:100B1000A5F14100192802D820354FF4006732466C
:100B2000294620462760FFF71BFB40B1012804D06F
:100B3000F61D26F007060836D8E7361DD6E7284604
:100B4000DAE7206ABDE8F0812DE9F041064600248D
:100B500010687529314616A510D0AFF30080002823
:100B600002DA404213A507E031688A0701D512A5D1
:100B700002E0490704D511A5012401E0AFF300808C
:100B800000210A2206F1240709E0B0FBF2FCB0FBC9
:100B9000F2F302FB1C00303078541846491C002840
:100BA000F3D123462A463046BDE8F04100F00CB8A8
:100BB000000000002D0000002B00000020000000BD
:100BC00070477047704770472DE9F0470D469946CA
:100BD0009246044600F124080168880604D5E069BD
:100BE00021F01001216000E00120A84201DD471B37
:100BF00000E00027A1697A1902EB0900081AA06138
:100C00002078C00602D42046AFF30080002608E01A
:100C1000D4E901211AF806009047206A401C761C8E
:100C200020624E45F4DB2078C0060AD52046AFF39B
:100C3000008006E0D4E9012130209047206A401C62
:100C40002062381EA7F10107F4DC07E0D4E9012196
:100C500018F805009047206A401C2062281EA5F164
:100C60000105F3DC2046AFF300802078000602D5B2
:100C70000220BDE8F0870120FBE70000074B70B5BC
:100C80000D467B4400F011F80446284600F020F899
:100C900010B14FF0FF3070BD204670BD0DF9FFFF61
:100CA00001694A1C02610878704700B58FB0CDE930
:100CB00001310021059105497944CDE90310114620
:100CC0006846FFF70DFF0FB000BD0000E5FFFFFF16
:100CD000007B00F080007047754600F02BF8AE46B0
:100CE00005006946534620F00700854618B020B538
:100CF000FFF760FABDE820404FF000064FF0000714
:100D00004FF000084FF0000B21F00701AC46ACE8B3
:100D1000C009ACE8C009ACE8C009ACE8C0098D4620
:100D2000704710B50446AFF300802046BDE8104080
:100D3000FFF728BA004870472800002090EA010F0A
:100D400048BF81F0004100F16282421A3CBF801A24
:100D500089184FEAD0524FF07F4C1CEA410FA2EBAA
:100D6000D15318BF9CEA026F00F03B804FF0004C5B
:100D70004CEA00204CEA012121FA03FC10EB0C0C98
:100D80001ED202F1FF325FEA1C2040EBC25038BF96
:100D900070471CF07F0F4FEA400C18BFBCF17F4F2B
:100DA00038BF7047C3F12003994008BF20F001000D
:100DB000BCF17F4F38BF7047A0F1C04000F011BABE
:100DC0004FEA3C00000A40EBC25028BF1CF0FF0F66
:100DD0004FEA400CE6D018BFBCF17F4F38BF7047D8
:100DE000EAE79CEA026F05D010EA5C0F08BF00F04A
:100DF0000040704710B500F0AEF900BF64FBBE3E86
:100E00004FF47F0C1CEAD0121EBF1CEAD11392EAE9
:100E10000C0F93EA0C0F00F0858090EA010F48BF99
:100E200042F4807240F4000C41F400002CF07F4149
:100E300020F07F4000B58142A2EB03020FF2081CB4
:100E4000ACEB504EC0F100009EF800E04FEA4E0EB1
:100E500000FB0EFC38BF49004FEA2C1C02F5FA02D9
:100E60000CFB0EF34FEACE1E4FEA112C4FEAC121C4
:100E70000EEB635E42EB22420EFB0CFC4FEA1C536E
:100E800000FB03114FEA112C4FEA01310EFB0CFC61
:100E90004FEADC4C00FB0C11C14228BF09184CEB97
:100EA00003335DF804EB10EB410143EBC250B2F5A4
:100EB0007C0F38BF704729D512F0F00F1CBF00F12E
:100EC000C04000F00040704700818283848586879F
:100ED00088898B8C8D8E8F919293959697999A9CF9
:100EE0009D9FA0A2A3A5A7A8AAACAEB0B2B3B5B768
:100EF000B9BCBEC0C2C5C7C9CCCED1D4D7D9DCDF3E
:100F0000E2E6E9ECF0F3F7FAFE0000004FEA400CED
:100F10000CF1807CBCF17E4F28BF7047B0F1C0401F
:100F200000F05FB990EA010F0CEAD11348BF42F418
:100F30008072624538BF634507D213F47F0F16D025
:100F400080EA010000F00040704710B500F003F99E
:100F5000097EFC3E00F005B880EA010000F0004088
:100F6000704780EA010000F0004000F03AB912F446
:100F70007F0F04BF0248704780EA010000F031B9DA
:100F80000000C07F41000B0ED3F19E0208D950F43F
:100F900000034FEA032323FA02F048BF40427047A0
:100FA00010B500F0D8F800BF4992248000207047A7
:100FB0006FF0004282EA200070470000C10DD1F1BD
:100FC0009E0206DB4FEA002343F0004323FA02F0BF
:100FD0007047004207D54FEA4001B1F1FE4F02D2FF
:100FE0004FF00000704710B500F0B5F8499224802A
:100FF000002070476FEA20007047000010F00041A9
:1010000048BF4042B0FA80F310FA03F2C3F19D03E7
:101010000BD051EAC35101EB1220530638BF704781
:1010200000F1010008BF20F001007047B0FA80F322
:1010300010FA03F2C3F19D030AD0D90501EB122087
:10104000530638BF704700F1010008BF20F00100CF
:10105000704700004FF47F0C1CEAD0121EBF1CEA40
:10106000D11392EA0C0F93EA0C0F00F0478090EA3C
:10107000010F48BF42F480724FF0004C4CEA002050
:101080004CEA012102EB0302A0FB0113A2F50002CE
:10109000002918BF43F001035B0028BF4FEA330368
:1010A00042EB22425FEA132C4CEBC2502EBFBCEB4A
:1010B000436FB2F57C0F70474FEA036CBCF1004FF1
:1010C00008BF20F00100B2F57C0F38BF70470BD588
:1010D00082F0FF0212F5803FC8BF704700F1C040A8
:1010E000D8BF00F00040704700F5000C5FEA4C0CE0
:1010F00048BF7047B0F1C04000F073B890EA010FEC
:101100000CEAD11348BF42F48072624538BF634590
:1011100004D280EA010000F00040704710B500F0F2
:101120001AF800BF8900013E00F007B800F009B8C6
:101130005FEA410C5FEA1C6C08D080EA010000F015
:1011400050B85FEA400C5FEA1C6CF6D14FF00040EB
:10115000A0F5800070470EF1020E2EF0030E5EF82F
:10116000044B244204D44FEA4102B2F17F4F11D81C
:101170004FEA4003B3F17F4F0CD80ED14FEAD07C39
:10118000B2F17F4F0CEB4C0C0CF1020C08BF4CEB96
:10119000D17C04E04FF0080C01E04FEAD17C0CEB6D
:1011A0004C0324FA03F404F00704B4F1040C06D24F
:1011B0000EEB840CBDE810404CF0010C6047DFE8FA
:1011C0000CF0070802024FF00040A0F5800010BDAF
:1011D0000846420018BFD2F1807288BF00F000407C
:1011E00010BDFF2141EAD050C005704780F000409B
:1011F00090EA010F7FF5A9AD81F0004100F007B83A
:1012000090EA010F48BF81F000413FF59EAD421AC0
:1012100004D882F00042A0EB020011444FEAD05201
:101220004FF07F4C1CEA410FA2EBD15318BF9CEA50
:10123000026F4AD04FF0004C4CEA00204CEA0121EA
:1012400021FA03FCB0EB0C0C0FD412F0FE0F36D0D9
:101250005FEA4C001DD5001240EBC25038BF70470A
:101260001CF03F0F18BF70470BE0A2F101025FEACC
:101270001C2040EBC25038BF70471CF07F0F18BFD6
:101280007047C3F12003994014BF401E20F00100B5
:10129000704780084FEA122308BF7047B0FA80FCFD
:1012A000A2EB0C02CCF1280C60FA0CF093EA122F9E
:1012B00004BF00EBC25070474FEAC3707047130A77
:1012C0005FEADC1008BF7047F6E79CEA026F04D0C3
:1012D00010EA5C0F08BF0020704710B5FFF73BFF16
:1012E00040DFF63E81F00040704700000C1300081C
:1012F0000000002028000000280100083413000826
:1013000028000020600600004401000801000000E1
:1013100000000000000000000000000000000000CD
:10132000000000003200000000000000000000008B
:0413300000000000B9
:04000005080000ED02
:00000001FF
