:020000040800F2
:10000000A008002055020008DF1600088F1600081F
:10001000DD1600080D050008ED1E000800000000B8
:100020000000000000000000000000009117000820
:100030000F0500080000000001170008391800082B
:100040006F0200086F0200086F0200086F020008CC
:100050006F0200086F0200086F0200086F020008BC
:100060006F0200086F0200086F0200086F020008AC
:100070006F0200086F0200086F0200086F0200089C
:100080006F0200086F0200086F0200086F0200088C
:100090006F0200086F0200086F0200086F0200087C
:1000A0006F0200086F0200086F0200086F0200086C
:1000B000911800086F020008D51900086F020008A7
:1000C0006F0200086F0200086F0200086F0200084C
:1000D0006F020008A91E00086F0200086F020008E6
:1000E0006F0200086F0200086F0200086F0200082C
:1000F0006F0200086F0200086F0200086F0200081C
:100100006F0200086F0200086F0200086F0200080B
:100110006F0200086F0200086F0200086F020008FB
:100120006F0200086F0200086F0200086F020008EB
:100130006F0200086F0200086F0200086F020008DB
:100140006F0200086F0200086F0200086F020008CB
:100150006F0200086F0200086F0200086F020008BB
:100160006F0200086F0200086F0200086F020008AB
:100170006F0200086F0200086F0200080000000014
:100180006F0200086F0200086F0200086F0200088B
:100190006F0200086F0200086F0200086F0200087B
:1001A0006F0200086F0200086F02000800F002F8FA
:1001B00000F041F80AA090E8000C82448344AAF1C0
:1001C0000107DA4501D100F036F8AFF2090EBAE8BE
:1001D0000F0013F0010F18BFFB1A43F0010318477B
:1001E000581E0000781E0000103A24BF78C878C15D
:1001F000FAD8520724BF30C830C144BF04680C602D
:10020000704700000023002400250026103A28BF74
:1002100078C1FBD8520728BF30C148BF0B60704778
:10022000642900F07980002070471FB501F0F6FEC8
:100230001FBD10B510BD00F037F91146FFF7F5FFEF
:1002400001F0A4FE00F055F903B4FFF7F2FF03BC80
:1002500001F05EFE0948804709480047FEE7FEE7D7
:10026000FEE7FEE7FEE7FEE7FEE7FEE7FEE7FEE766
:1002700004480549054A064B704700003D18000830
:10028000AD010008A0020020A0080020A00400206A
:10029000A0040020704700000FB4044910B503AA61
:1002A000029800F0D3F810BC5DF814FB2000002089
:1002B0002DE9F0410E460446002020622046E16808
:1002C000884730B3252805D0D4E901219047206A1A
:1002D000401CF2E7E168204600278847050018D057
:1002E000A5F14100192802D820354FF400673246A5
:1002F000294620462760FFF793FF40B1012804D02C
:10030000F61D26F007060836D8E7361DD6E728463C
:10031000DAE7206ABDE8F0812DE9F04106460024C5
:1003200010687529314616A510D0AFF3008000285B
:1003300002DA404213A507E031688A0701D512A509
:1003400002E0490704D511A5012401E0AFF30080C4
:1003500000210A2206F1240709E0B0FBF2FCB0FB01
:10036000F2F302FB1C00303078541846491C002878
:10037000F3D123462A463046BDE8F04100F00CB8E0
:10038000000000002D0000002B00000020000000F5
:1003900070477047704770472DE9F0470D46994602
:1003A0009246044600F124080168880604D5E069F5
:1003B00021F01001216000E00120A84201DD471B6F
:1003C00000E00027A1697A1902EB0900081AA06170
:1003D0002078C00602D42046AFF30080002608E053
:1003E000D4E901211AF806009047206A401C761CC7
:1003F00020624E45F4DB2078C0060AD52046AFF3D4
:10040000008006E0D4E9012130209047206A401C9A
:100410002062381EA7F10107F4DC07E0D4E90121CE
:1004200018F805009047206A401C2062281EA5F19C
:100430000105F3DC2046AFF300802078000602D5EA
:100440000220BDE8F0870120FBE70000074B70B5F4
:100450000D467B4400F011F80446284600F020F8D1
:1004600010B14FF0FF3070BD204670BD231B00005F
:1004700001694A1C02610878704700B58FB0CDE968
:1004800001310021059105497944CDE90310114658
:100490006846FFF70DFF0FB000BD0000E5FFFFFF4E
:1004A000007B00F080007047754600F02BF8AE46E8
:1004B00005006946534620F00700854618B020B570
:1004C000FFF7D6FEBDE820404FF000064FF00007D2
:1004D0004FF000084FF0000B21F00701AC46ACE8EC
:1004E000C009ACE8C009ACE8C009ACE8C0098D4659
:1004F000704710B50446AFF300802046BDE81040B9
:10050000FFF7A2BE004870473C020020FEE770479C
:100510002DE9F84FDFF8A091002209F1040A0AF151
:10052000040B4FF00F080BF1040E01260B689640E8
:100530003340B34271D14C68022C01D0122C11D13E
:10054000D40800EB84073D6A5407E40E08FA04FC63
:1005500025EA0C05D1F810C00CFA04FC4CEA050C95
:10056000C7F820C007685400032591F804C0A540CF
:100570000CF0030CAF430CFA04FC4CEA070CC0F877
:1005800000C04F68012F05D0022F03D0112F01D0DA
:10059000122F11D18768D1F80CC0AF430CFA04FCBC
:1005A0004CEA070CC0F808C04768B7430E79C6F399
:1005B000001696403E434660C668AE438D68A5402F
:1005C0003543C5604C68E4006FD53C4C256845F464
:1005D00080452560246822F0030504F480440094DB
:1005E000374C2E19D6F808789407250F08FA05F429
:1005F000A743344CA04201D100242EE0324CA0424B
:1006000001D1012429E0314CA04201D1022424E08F
:100610002F4CA04202D103241FE046E02D4CA04203
:1006200001D1042419E02C4CA04201D1052414E08E
:100630002A4CA04201D106240FE0294CA04201D14E
:1006400007240AE0274CA04201D1082405E0264CEB
:10065000A04201D1092400E00A24AC403C43C6F882
:100660000848D9F800404D464E689C43F60300D533
:100670001C432C60DAF8004055464E689C43B60394
:1006800000D51C432C60DBF800405D464E689C435F
:10069000F60200D51C432C60DEF8004075464E681B
:1006A0009C43B60200D51C432C60521C102AFFF458
:1006B0003CAFBDE8F88F0000003C014044380240E8
:1006C00000300140000002400004024000080240E7
:1006D000000C0240001002400014024000180240CA
:1006E000001C024000200240002402400AB1816147
:1006F00070470904FBE700000148006870470000EC
:100700001400002002480168491C01607047000085
:10071000140000200B4810B5016841F4007101601D
:10072000016841F480610160016841F480710160F9
:10073000052000F047F80F2000F006F800F015F84B
:10074000002010BD003C024010B5044600F094F9B2
:100750004FF47A71B0FBF1F000F0A8FB00222146C3
:10076000501E00F00FF8002010BD704700F01F026F
:10077000012191404009800000F1E020C0F8001103
:1007800070470000F0B40E4B1B68C3F30223C3F1A3
:100790000704042C00D904241D1D072D01D20023B9
:1007A00000E0DB1E012606FA04F56D1E0D409D409B
:1007B0009E40761E164045EA0601F0BC00F090BF50
:1007C0000CED00E0064A00F0070110684FF6FF0349
:1007D000184040EA012003490843106070470000B8
:1007E0000CED00E00000FA052DE9F8431D48016812
:1007F00041F0805101600068012700F080500090B6
:10080000380490FAA0F0DFF86080B0FA80F048F881
:100810002070FFF771FF04464FF47A75134E04E021
:10082000FFF76AFF001BA84213D87068C003F7D512
:100830004FF4003090FAA0F0B0FA80F048F8207041
:10084000FFF75AFF044607E0FFF756FF001BA842D8
:1008500002D90320BDE8F88370688003F4D5002036
:10086000F8E700004038024000000E4200700040EF
:100870002DE9F05FDFF8F8A104460F46DAF8000032
:10088000DFF8F08100F00F02C8B27A49814641F2E8
:10089000883608F10808BA4261D202468AF8002078
:1008A000DAF8000000F00F00B8427DD12078800710
:1008B00007D5D8F80020A36822F0F0021A43C8F840
:1008C00000202078C0072DD0606801281AD00228A7
:1008D0001BD0032819D009688907002964DAD8F8E1
:1008E0000010474621F003010143C8F80010FFF74C
:1008F00003FF0546606801280FD0022818D003289E
:100900001CD027E009688903E7E709688901E4E763
:10091000FFF7F2FE401BB04258D83868C0F38100A0
:100920000128F5D188E0FFF7E7FE401BB0424DD823
:100930003868C0F381000228F5D17DE03868FFF700
:10094000DBFE401BB042F9D940E0FFF7D5FE401B6B
:10095000B0423BD8386810F00C0FF6D16CE020782C
:10096000800707D5D8F80020A36822F0F0021A43C8
:10097000C8F800202078C0074CD06068012828D033
:10098000022829D0032827D009688907002949DAD5
:10099000D8F8002022F003020243C8F80020FFF735
:1009A000ABFE0546606800E03CE001281DD002284F
:1009B00029D0032838D0B3464646306810F00C0FD3
:1009C00028D0FFF799FE411B5945F6D90320BDE811
:1009D000F09F09688903D9E709688901D6E7FFF71D
:1009E0008BFE411B594502D9F0E7B34646463068B5
:1009F000C0F381000128F2D10CE0FFF77DFE411B1E
:100A0000594502D9E2E7B34646463068C0F3810053
:100A10000228F2D18AF80090DAF8000000F00F0006
:100A2000B84209D00120D2E744462068FFF764FEAF
:100A3000401BB042F9D9C9E72078400707D5D8F85C
:100A40000010E26821F4E0511143C8F8001020784A
:100A5000000708D5D8F80010226921F4604141EA66
:100A6000C201C8F800100F20FFF76EFE0020AEE7AD
:100A7000003C02400038024010B500F043F808493D
:100A80000968F02292FAA2F201F0F001B2FA82F2C1
:100A9000D140044A515CC8400349086010BD0000C1
:100AA00008380240262000080000002010B5FFF79B
:100AB000E3FF074909684FF4E05292FAA2F201F409
:100AC000E051B2FA82F2D140024A515CC84010BDF6
:100AD000083802402620000810B5FFF7CDFF07496F
:100AE00009684FF4604292FAA2F201F46041B2FA4E
:100AF00082F2D140024A515CC84010BD0838024021
:100B00002620000830B51948006810F00C0118487C
:100B100012D0184C04290ED008290DD1134A121FE7
:100B20001168136801F03F015D0247F6C07304D5F8
:100B3000B4FBF1F003E0204630BDB0FBF1F01168EA
:100B4000194093FAA3F3B3FA83F3D94048431168E9
:100B50004FF4403292FAA2F201F44031B2FA82F23A
:100B6000D140491C4900B0FBF1F030BD08380240CB
:100B70000024F40040787D012DE9F84F0446007808
:100B8000DFF8FCA2BF4DC0074FF0000648D0DAF8EE
:100B900000105046C1F38101012908D00068C0F35C
:100BA000810002280AD1281D0068400206D5286865
:100BB000800335D56068002873D031E0DFF8C49237
:100BC00009F1020989F80060FFF796FD074641F236
:100BD000883804E0FFF790FDC11B41457AD82868AA
:100BE0008003F7D4207989F80000606860B1FFF7CE
:100BF00083FD074604E0FFF77FFDC11B4145EDD8AB
:100C000028688003F7D50BE0FFF776FD074604E080
:100C1000FFF772FDC11B4145E0D828688003F7D477
:100C20002078DFF86492800744D5DAF80010504647
:100C300011F00C0F4FF0F80809D00068C0F38100E4
:100C400002280BD18E48001F0068400206D4286895
:100C5000800714D5E068012823D110E0E068D0B106
:100C60000120C9F80000FFF747FD074604E0FFF741
:100C700043FDC01B6428B1D828688007F7D52868D1
:100C800098FAA8F22169B2FA82F220F0F8009140B5
:100C9000084328600EE0C9F80060FFF72DFD074605
:100CA00005E0EAE0FFF728FDC01B642812D8286899
:100CB0008007F7D42078000725D5DFF8C481734872
:100CC000616908F16C0881B101210160FFF714FD31
:100CD000074605E07EE0FFF70FFDC01B642879D8CA
:100CE000D8F800008007F6D50DE00660FFF704FD98
:100CF000074604E0FFF700FDC01B64286AD8D8F857
:100D000000008007F6D42078400753D55C4838307F
:100D1000016841F0805101600068DFF8748100F0E3
:100D200080500090D8F8001041F48071C8F800108D
:100D3000FFF7E2FC074604E0FFF7DEFCC01B642877
:100D400048D8D8F80000C005F6D5DFF834B10BF16B
:100D5000680B8BF80060FFF7CFFC074641F288383C
:100D600004E0FFF7C9FCC11B41457ED8DBF8000059
:100D70008007F6D4207A8BF80000A06868B1FFF7EE
:100D8000BBFC074604E0FFF7B7FCC11B41456CD82C
:100D9000DBF800008007F6D50CE0FFF7ADFC074656
:100DA00004E0FFF7A9FCC11B41455ED8DBF8000059
:100DB0008007F6D4A069E8B3DAF80010C1F3810126
:100DC00002295AD0022806D0C9F86060FFF794FCC7
:100DD00004464DE049E04F46C9F86060FFF78CFCDF
:100DE000064604E0FFF788FC801B64283DD828688D
:100DF0008001F7D4D4E90701084347F6C07191FA9E
:100E0000A1F1626AB1FA81F18A40A16A4FF0FF3321
:100E100003EB51014FF4403393FAA3F3B3FA83F396
:100E200099400A4310434FF0706292FAA2F2B2FA6C
:100E300082F200E01FE0E16A914008431049091F77
:100E4000086001203866FFF757FC044604E0FFF70E
:100E500053FC001B642808D828688001F7D50AE0F5
:100E6000FFF74AFC001B642802D90320BDE8F88F75
:100E700028688001F4D40020F8E70120F6E700009C
:100E8000083802400038024000004742800E4742C6
:100E9000007000404FF0E0210428086903D020F0E2
:100EA00004000861704740F00400FAE710B5401EE6
:100EB000B0F1807F01D3012010BD4FF0E0246061CC
:100EC0000F21601700F00CFC0020A06107202061BA
:100ED000002010BD7047704710B5040003D094F88F
:100EE000390010B107E0012010BD002084F838005F
:100EF000204600F00DF8022084F83900211D2068FA
:100F000000F06EFD012084F83900002010BD0000C3
:100F100008B50068B0F1804F12D10A48016841F06D
:100F2000010101600068032200F00100009001212E
:100F30001C20FFF727FCBDE808401C20FFF716BC6B
:100F400008BD0000403802400168CA6842F0010252
:100F5000CA600068016841F001010160002070472B
:100F60002DE9F0410D46040003D094F8390018B182
:100F700008E00120BDE8F081002084F83800204618
:100F800000F03AF8022084F839002068816821F0E6
:100F900007018160211D206800F022FD2068816822
:100FA0008269066A2B68AF690B4340F203318A43BA
:100FB00042EA0722A968EF6911434FF6FC429143C8
:100FC000EA6841EA07210A4329692F6A090141EACF
:100FD0000737696817436D6926F0AA0242EA0512CD
:100FE000114383602068876120680162012084F8D2
:100FF00039000020BEE70000174800B5016887B03F
:1010000041F008010160006800F0080005901248F6
:101010001030016841F0040101600068012100F016
:10102000040005904FF4405000900220CDE90101EA
:101030000321CDE9031069460848FFF769FA032246
:1010400001211E20FFF79EFB1E20FFF78FFB0448A7
:10105000FFF77AFF07B000BD30380240000C0240B5
:10106000A001002010B50446006889B1042904D00D
:101070000122002100F014FD20680122042100F06B
:101080000FFD2068016841F001010160002010BDE2
:1010900001220021F3E710B50446006889B1042954
:1010A0004FF0010216D0002100F0FAFC01220421C9
:1010B000206800F0F5FC2068C16841F00201C160C1
:1010C0000BE00122002100F0EBFC2068C16841F038
:1010D000020106E0042100F0E3FC2068C16841F051
:1010E0000401C1602068016841F001010160002035
:1010F00010BD704770B50446006801694FF00005E7
:10110000C943890715D4C168C943890711D4E91EA9
:10111000016101202076206880698007204602D086
:10112000FFF7E7FF04E000F098F8204600F042F9EE
:10113000257620680169C943490717D4C168C943A6
:10114000490713D46FF00401016102202076206862
:10115000806910F4407F204602D0FFF7CAFF04E008
:1011600000F07BF8204600F025F92576206801691B
:10117000C943090716D4C168C943090712D46FF0DF
:1011800008010161042020762068C069800720469C
:1011900002D0FFF7AEFF04E000F05FF8204600F059
:1011A00009F9257620680169C943C90617D4C168C1
:1011B000C943C90613D46FF01001016108202076DD
:1011C0002068C06910F4407F204602D0FFF791FFED
:1011D00004E000F042F8204600F0ECF825762068A4
:1011E0000169C943C90708D1C168C943C90704D106
:1011F000891E0161204600F0FBF820680169C9439F
:10120000090609D4C168C943090605D46FF08001F5
:1012100001612046FFF75EFE20680169C943490667
:1012200009D4C168C943490605D46FF04001016182
:10123000204600F0DEF820680169C94389060BD416
:10124000C168C943890607D46FF0200101612046B7
:10125000BDE87040FFF73FBE70BD704770B50446F3
:1012600090F838000D4601280DD0012684F838602A
:10127000022084F8390042B1042A18D0082A2AD062
:101280000C2A4DD139E0022070BD206800F014FC1A
:101290002068816941F0080181612068816921F03D
:1012A00004018161206881692A69114311E0206885
:1012B00000F02EFC2068816941F4006181612068A2
:1012C000816921F480618161206881692A6941EA2C
:1012D0000221816124E0206800F04CFC2068C16993
:1012E00041F00801C1612068C16921F00401C161B8
:1012F0002068C1692A69114311E0206800F06AFC86
:101300002068C16941F40061C1612068C16921F4AC
:101310008061C1612068C1692A6941EA0221C16115
:1013200084F83960002084F8380070BD10B50400DE
:1013300003D094F8390010B107E0012010BD00205F
:1013400084F83800204600F00DF8022084F83900B7
:10135000211D206800F044FB012084F839000020A2
:1013600010BD0000114800B5016887B041F00201CE
:101370000160006800F0020005900C481038016818
:1013800041F0020101600068012100F002000590B7
:10139000302000900220CDE901010321CDE90310A6
:1013A00069460348FFF7B4F807B000BD4038024073
:1013B000000402407047000010B504460068012296
:1013C00000F06EFB08482168814202D00748814244
:1013D00003D1486C40F4004048642068016841F043
:1013E00001010160002010BD000001400004014027
:1013F00070477047704790F83900704738B50168FA
:1014000004460868CA68C0F3000002F4807238B16C
:1014100032B1086848680090E06B40F00100E0637A
:1014200008684A69C0F3400002F0010238B132B1E5
:10143000086848680090E06B40F00400E0630868CA
:101440004A69C0F3800002F0010238B132B1086885
:1014500048680090E06B40F00200E06308684A6969
:10146000C0F3C00002F0010238B132B10868486828
:101470000090E06B40F00800E0630868C968C0F3C2
:10148000401001F0200118B111B1204600F0CAFB54
:1014900020680168C068C1F3C01100F0800019B174
:1014A00010B1204600F0CCFC21680868CA68C0F37F
:1014B000801002F04002012568B162B1CA6820467E
:1014C00022F04002CA6094F8391032290CD080F81A
:1014D000395000F0DBF8E06B002804D084F8395074
:1014E0002046FFF787FF38BD222180F83910F0E74A
:1014F00070B5040004D094F83900002510B106E05E
:10150000012070BD84F83850204600F021F80220F8
:1015100084F839002068C16821F40051C160204678
:1015200000F0D4FB2068016921F49041016120683A
:10153000416921F02A0141612068C16841F40051EC
:10154000C160E563012084F83900002070BD00000F
:1015500010B500681A4986B088422FD11948016831
:1015600041F001010160006800F00100059015489C
:101570001430016841F0100101600068012100F0A1
:10158000100005904FF4007000900220CDE9010199
:10159000039007200C4C049069462046FEF7B8FFE4
:1015A0002115009169462046FEF7B2FF2520FFF77E
:1015B000DDF8032211462520FFF7E4F806B010BD40
:1015C00000100140303802400000024090F83930ED
:1015D000012B01D0122B2BD131B32AB390F8383024
:1015E000012B25D0012380F8383081628285C285A5
:1015F0000022C26390F83910122917D0222180F8F6
:1016000039100168CB6843F48073CB6001684B6983
:1016100043F001034B6180F838200068C16841F055
:101620002001C16000207047012070473221E6E7A9
:101630000220704730B50068114988420CD1114A28
:101640005088010408D41146440409784FF000037F
:1016500006D50A2901D0538030BD40F400400DE08A
:101660000D2909D0C0F30D04074D401C80B2295547
:101670005080C728EFD830BD40F48040508030BD46
:10168000001001401C000020400000207047FEE7D1
:10169000104810B5016886B041F002010160006891
:1016A000012100F0020005900320CDE90210CDE9F0
:1016B0000001094C69462046FEF72AFF0122114627
:1016C0002046FFF713F8012202212046FFF70EF80B
:1016D00006B010BD3038024000040240FEE77047FB
:1016E0000907090E002806DA00F00F0000F1E020DB
:1016F00080F8141D704700F1E02080F80014704756
:1017000070470000401A00EE100A1348DFED0F1A70
:10171000B8EEC00AD0ED020A9FED0D2A9FED0D1A1A
:1017200070EE800A61EE801AC0ED020A42EE201AC5
:10173000D0ED030A80ED030A70EE600A41EE201A34
:10174000BDEEE10A10EE100A704700000000A04252
:10175000CDCCCC3D000048422400002010B5044808
:10176000046804A02146FEF797FD204610BD000046
:101770002408004074686520456E636F64657220BC
:10178000636170747572652069732025640D0A00A9
:101790007047000000B5024600F01FFC04490860D5
:1017A000104600F01AFC0249091D086000BD000047
:1017B0003404004070B51E4C92B00025266846F0F7
:1017C00080562660246804F080541194194C2668D1
:1017D00046F44046266024680DF1240C04F440448D
:1017E0001194012400940194022406948CE80D00C5
:1017F0006605CDE907616846FFF7BEF900B1FEE76F
:10180000FEF7F2FF00B1FEE70CA90F2081E83100DE
:101810004FF4A0500F904FF48050109005210CA869
:10182000FFF726F8002800D0FEE712B070BD0000D8
:101830004038024000700040FEF764BF1048016865
:1018400041F4700101600F48016841F0010101603D
:101850000C4A00210832116002680B4B1A400260EA
:10186000031D0A4A1A60026822F4802202600548B9
:101870000C3001600249580680390860704700004A
:1018800088ED00E000380240FFFFF6FE1030002433
:1018900010B54FF080400169C9071FD0016921F0E0
:1018A00001010161FFF75AFF0D4C0E49A060D1F80C
:1018B000840288B10020C1F88402642000F034FB67
:1018C0002168A068FFF71EFF606000F011FB6068F0
:1018D000BDE81040FFF75EBF0120ECE710BD00003F
:1018E0003400002000804042084A10B54FF0804389
:1018F000C2E900310021C2E9021010461161FFF770
:10190000EBFABDE810400148FFF71EBB00020020C3
:1019100010B5144A04461248C2E900010020C2E989
:10192000020410611046FFF701FD0E4960203C31B2
:101930000022C1E90004022088600A48FFF78EFCFB
:10194000084904223C310748FFF788FC002105487C
:10195000FFF732FDBDE8104004210248FFF72CBD1F
:10196000000400404801002010B5194C174AC4E992
:1019700000210021C4E9021004F13C00216103228E
:101980000161C0E900210122C0E902210162416137
:10199000C0E9062101463C38FFF7E2FA182120464B
:1019A000FFF760FB18212046FFF775FB074942F25D
:1019B0001070243108602068016841F00101016065
:1019C0002068C16841F00101C16010BD00080040FD
:1019D000A00100200148FFF78DBB0000A0010020FE
:1019E000F0B50268234D244E244FDFF894C0254BF8
:1019F0004FF0804EA84209D0704507D0B04205D0C4
:101A0000B84203D0604501D0984203D122F070045F
:101A10004A682243A8421BD0704519D0B04217D063
:101A2000B84215D0604513D0984211D0164CA04250
:101A30000ED0164CA0420BD0154CA04208D0154C2D
:101A4000A04205D0144CA04202D0144CA04203D1B5
:101A500022F44074CA68224302608A68C2620A683B
:101A60008262A84201D0984201D109690163012133
:101A70004161F0BD0000014000040040000800404A
:101A8000000C0040000401400040014000440140BF
:101A90000048014000180040001C004000200040A9
:101AA00010B50123046A8B409C430462036A8A4098
:101AB0001343036210BD000030B5026A22F0010238
:101AC0000262056A426883690C6823F073031C4351
:101AD0008B6825F002052B430B4DA84202D00B4D1D
:101AE000A8420BD123F00805CB6822F440722B43A7
:101AF0004D6923F0040315438A692A4342608461D7
:101B000049684163036230BD0000014000040140A8
:101B100030B5026A22F010020262036A42688469E8
:101B20000D6824F4E64444EA05248D6823F020037C
:101B300043EA05130D4DA84202D00D4DA8420ED127
:101B4000CD6823F0800343EA05134D6922F4406217
:101B500042EA85028D6923F0400342EA8502426031
:101B6000846149688163036230BD00000000014068
:101B70000004014030B5026A22F480720262036AF6
:101B80004268C46923F4007324F073050C682C4385
:101B90008D6843EA05230D4DA84202D00C4DA842A2
:101BA0000ED1CD6823F4006343EA05234D6922F486
:101BB000405242EA05128D6923F4806342EA05121D
:101BC0004260C4614968C163036230BD00000140E6
:101BD0000004014030B5026A22F480520262036AB6
:101BE0004268C4690D6824F4E64444EA05248D681B
:101BF00023F4005343EA0533084DA84202D0084DB0
:101C0000A84204D14D6922F4804242EA8512426022
:101C1000C46149680164036230BD000000000140F6
:101C20000004014010B590F83910222903D0322960
:101C300001D0022010BD8168B1F5805F11D001692B
:101C4000002901681FD0496801F07F03816A4A1C9E
:101C500082620B70C18D491E0904090CC18518D020
:101C60002FE00269816A002A0268526805D0D2B268
:101C70000A80816A491C8162ECE7C2F308020A808B
:101C8000816A891CF7E74A68816A4B1C83620A7083
:101C9000E0E70168CA6822F02002CA6090F83910B3
:101CA000322910D00168CA6822F48072CA600168C3
:101CB0004A6922F001024A61012180F83910FFF7D8
:101CC000B9FC002010BD1221F7E700002DE9F0411A
:101CD000044600680169E26821F440510A43026148
:101CE0002068C16849F20C6291432369A268E569E2
:101CF0001A4363692B431A430A43C260206841694F
:101D000021F44072A16911434161E06964263225E2
:101D1000B0F5004F484A494920681DD0884201D09B
:101D2000904269D1FEF7D8FE00EBC00101EB001034
:101D30006168B0468900B0FBF1F1B1FBF8F6FEF73F
:101D4000CBFE00EBC00101EB001061688900B0FB25
:101D5000F1F7FEF7C1FE68E0884201D0904219D148
:101D6000FEF7BAFE00EBC00101EB00106168B0465F
:101D70004900B0FBF1F1B1FBF8F6FEF7ADFE00EB68
:101D8000C00101EB001061684900B0FBF1F7FEF7FC
:101D9000A3FE18E0FEF78AFE00EBC00101EB001085
:101DA0006168B0464900B0FBF1F1B1FBF8F6FEF70F
:101DB0007DFE00EBC00101EB001061684900B0FB43
:101DC000F1F7FEF773FE00EBC00101EB0010616854
:101DD0004900B0FBF1F1B1FBF8F06FF01801484396
:101DE00007EB800005EB0011B1FBF8F0216866F30A
:101DF0001F108860BDE8F081FEF758FE00EBC001BF
:101E000001EB00106168B0468900B0FBF1F1B1FB55
:101E1000F8F6FEF74BFE00EBC00101EB0010616825
:101E20008900B0FBF1F7FEF741FE00EBC00101EBCA
:101E3000001061688900CCE70014014000100140E7
:101E400090F83910122903D0322901D002207047AE
:101E50008168B1F5805F016A0BD04A1C026202689A
:101E600009785160C18C491E0904090CC1840ED047
:101E700017E009880268C1F308015160016900296F
:101E8000016A02D0491C0162ECE7891CFBE701688A
:101E9000CA6822F08002CA600068C16841F040014F
:101EA000C16000207047000070B500240C4D0D4843
:101EB000FFF7A4FA02E0641CAC4204D80948FFF71B
:101EC0009AFA0128F7D1002402E0641CAC4206D83B
:101ED000012205490348FFF779FB0028F5D170BDC1
:101EE000FFFF0100080100201C000020FEE70000A9
:101EF00006494FF4FA5253424868984201DA4B605F
:101F000070479042FCDD4A607047000034000020BA
:101F10007047000010B504460420FEF7BBFF0148DF
:101F2000046010BD1800002070B5054600244FF471
:101F30007A7603E0304600F005F8641CAC42F9D331
:101F400070BD000070B54FF0E02500216C69094AB2
:101F5000AB6912685043AA699A42FCD002D2A3EB43
:101F6000020302E0A4EB0206334419441346814203
:101F7000F1D370BD1800002003490A685206FCD551
:101F8000C2B24A607047000000100140FEF7C2FB79
:101F90000823022219214FF4B470FFF70BFCB42080
:101FA000FFF7B8FF4FF4E13000F01CF8FFF770FBCB
:101FB00042F2273421466320FFF796FC0021204699
:101FC000FFF7A6FC00214FF6FE70FFF7CDFCFFF7F0
:101FD000C5FB6420FFF7A8FFF9E7002800DA4042BC
:101FE000704700000B4910B5094AC1E900200020E4
:101FF0008860C860086188610C2048610846FFF766
:1020000077FABDE81040012203490248FFF7DEBA23
:1020100000100140080100201C0000204FF040701B
:10202000E1EE100A70470000000001020304010203
:1020300003040607080900005820000800000020DB
:1020400040000000E801000898200008400000203F
:1020500060080000040200080024F40000000000F2
:102060000000000001020304060708090000000048
:102070000000000000000000000000000000000060
:10208000000000000000000000000000F82A00002E
:08209000000000000000000048
:04000005080001AD41
:00000001FF
